:1000000071C000008EC000008CC000008AC00000DB
:1000100088C0000086C0000084C0000082C00000CC
:1000200080C000007EC000007CC000007AC00000DC
:1000300078C0000076C0000074C0000072C00000EC
:1000400070C000006EC000006CC000006AC00000FC
:1000500068C0000066C0000064C0000062C000000C
:1000600060C000005EC000005CC000005AC000001C
:1000700058C0000056C0000054C0000052C000002C
:1000800050C000004EC000004CC000004AC000003C
:1000900048C0000046C0000044C0000042C000004C
:1000A00040C000003EC000003CC000003AC000005C
:1000B00038C0000036C0000034C0000032C000006C
:1000C00030C000002EC000002CC000002AC000007C
:1000D00028C0000026C0000024C0000022C000008C
:1000E00020C0000011241FBECFEFD1E2DEBFCDBF84
:1000F00000E00CBF13E0A0E0B2E0EAE6F5E000E0CB
:100100000BBF02C007900D92AA37B107D9F723E0C1
:10011000AAE7B3E001C01D92AA37B207E1F781D088
:1001200022C26ECFCF93DF931F92CDB7DEB7198275
:1001300089818F5F898389818F5F89830F90DF91A8
:10014000CF9108950F931F93CF93DF93082F10E063
:10015000C0E0D0E0E7DF21960C171D07DCF7DF9148
:10016000CF911F910F9108950F931F93CF93DF931A
:10017000082F10E0C0E0D0E08AEFE4DF8AEFE2DF92
:100180008AEFE0DF8AEFDEDF21960C171D07A4F768
:10019000DF91CF911F910F9108950F931F93CF93EC
:1001A000DF93082F10E0C0E0D0E08AEFDDDF8AEFB8
:1001B000DBDF8AEFD9DF8AEFD7DF21960C171D0727
:1001C000A4F7DF91CF911F910F91089543E064E070
:1001D00072E080E192E00AD041E06EE172E08DE2EF
:1001E00092E004D0F9CFD7D070C00895EF92FF927B
:1001F0000F931F93CF937C018B01C42F99D060E0A4
:1002000080E087D0C701B7D060E081E082D0C8012C
:10021000B2D08C2FC2DFCF911F910F91FF90EF9042
:100220000895E1DF81E090E036D143E06CE372E0D5
:100230008AE492E0DBDFC5E6D0E02AD1BE01BAD085
:10024000C5DFFBCF0F931F93CF93DF93082F2E981B
:1002500018E0C2E0D1E0002324F488818064888320
:1002600003C088818F7B88839881906298835ADF4E
:1002700098819F7D9883000F115069F72E9ADF9126
:10028000CF911F910F9108951F93CF93DF93811109
:1002900004C02C98862FD6DF14C02C9A605270E0D0
:1002A000EB01CC0FDD1FCC0FDD1FC60FD71FCD5AC2
:1002B000DD4F10E08991C6DF1F5F1530D9F780E070
:1002C000C1DFDF91CF911F910895E1E0F1E08081DE
:1002D00080628083808180648083249A259A269A14
:1002E00084E142DF2D9A8AE03FDF2E9A61E280E0CE
:1002F000CBDF63E180E0C8DF6AEC80E0C5DF64E06B
:1003000080E0C2DF60E280E0BFDF6CE080E0BCCF75
:100310000895CF93C62F682F606480E0B5DF6C2FFF
:10032000660F6C0F660F606880E0AEDFCF910895B6
:10033000EF92FF920F931F93CF93DF930FE010E0A4
:100340000F2EF7E0EF2EF02DF12C08C060E281E0D7
:100350009BDF2197D9F70150110919F0CE2DDF2D20
:10036000F5CF60E080E0D5DFDF91CF911F910F9155
:10037000FF90EF900895CF93DF93FC016081662397
:1003800039F0EC01219681E07FDF69916111FBCFAB
:10039000DF91CF9108959D9A6B9AE1E0F1E0808121
:1003A00088608083808180618083859884986C9840
:1003B0006D98089597FB072E16F4009406D077FDEC
:1003C00008D00BD007FC05D03EF4909581959F4F47
:1003D0000895709561957F4F0895AA1BBB1B51E14D
:1003E00007C0AA1FBB1FA617B70710F0A61BB70BA5
:1003F000881F991F5A95A9F780959095BC01CD014A
:1004000008958F929F92AF92BF92CF92DF92EF9218
:10041000FF92CF93DF93EC01688179818A819B8180
:10042000611571058105910521F464E279ED8BE593
:1004300097E02DE133EF41E050E038D049015A0117
:100440009B01AC01A7EAB1E44DD06B017C01ACEE9D
:10045000B4EFA501940152D0DC01CB018C0D9D1DA0
:10046000AE1DBF1DB7FF03C00197A109B048888327
:100470009983AA83BB839F77DF91CF91FF90EF9001
:10048000DF90CF90BF90AF909F908F900895B9CF9D
:1004900080E092E0B6CFA0E0B0E0809300029093BD
:1004A0000102A0930202B09303020895052E97FB68
:1004B00016F400940FD057FD05D024D007FC02D0CD
:1004C00046F408C050954095309521953F4F4F4FC9
:1004D0005F4F089590958095709561957F4F8F4FF0
:1004E0009F4F089531D0A59F900DB49F900DA49F6C
:1004F000800D911D11240895B7FFF4CFF3DF821B07
:10050000930B0895A1E21A2EAA1BBB1BFD010DC07F
:10051000AA1FBB1FEE1FFF1FA217B307E407F507B3
:1005200020F0A21BB30BE40BF50B661F771F881F8F
:10053000991F1A9469F760957095809590959B0125
:10054000AC01BD01CF010895A29FB001B39FC001CE
:10055000A39F700D811D1124911DB29F700D811DEF
:0A0560001124911D0895F894FFCFB7
:10056A0001000000544845204E554D4245523F0077
:10057A0043414E20594F5520475545535300424554
:10058A00545745454E20312D3130302100454E54C7
:10059A0045522041204E554D424552004C45542764
:1005AA005320504C41592E2E2E0057454C434F4D47
:1005BA00452100000000000000005F000000070065
:1005CA000700147F147F14242A7F2A122313086435
:1005DA006236495522500005030000001C224100E2
:1005EA000041221C0014083E081408083E080800AE
:1005FA005030000008080808080060600000201059
:10060A000804023E5149453E00427F400042615182
:10061A0049462141454B311814127F10274545455B
:10062A00393C4A4949300171090503364949493675
:10063A00064949291E0036360000005636000008D1
:10064A001422410014141414140041221408020143
:10065A00510906324979413E7E1111117E7F49497D
:10066A0049363E414141227F4141221C7F49494945
:10067A00417F090909013E4149497A7F0808087FF3
:10068A0000417F41002040413F017F081422417F01
:10069A00404040407F020C027F7F0408107F3E41A9
:1006AA0041413E7F090909063E4151215E7F0919F0
:1006BA002946464949493101017F01013F404040ED
:1006CA003F1F2040201F3F4038403F6314081463F7
:0A06DA000708700807615149454305
:00000001FF
