:1000000071C000008EC000008CC000008AC00000DB
:1000100088C0000086C0000084C0000082C00000CC
:1000200080C000007EC000007CC000007AC00000DC
:1000300078C0000076C0000074C0000072C00000EC
:1000400070C000006EC000006CC000006AC00000FC
:1000500068C0000066C0000064C0000062C000000C
:1000600060C000005EC000005CC000005AC000001C
:1000700058C0000056C0000054C0000052C000002C
:1000800050C000004EC000004CC000004AC000003C
:1000900048C0000046C0000044C0000042C000004C
:1000A00040C000003EC000003CC000003AC000005C
:1000B00038C0000036C0000034C0000032C000006C
:1000C00030C000002EC000002CC000002AC000007C
:1000D00028C0000026C0000024C0000022C000008C
:1000E00020C0000011241FBECFEFD1E2DEBFCDBF84
:1000F00000E00CBF13E0A0E0B2E0E2E8FDE000E0C9
:100100000BBF02C007900D92AA3DB107D9F723E0BB
:10011000AAEDB3E001C01D92AA3DB207E1F76ED18E
:100120002EC66ECFCF93DF931F92CDB7DEB7198265
:1001300089818F5F898389818F5F89830F90DF91A8
:10014000CF9108950F931F93CF93DF93082F10E063
:10015000C0E0D0E0E7DF21960C171D07DCF7DF9148
:10016000CF911F910F9108950F931F93CF93DF931A
:10017000082F10E0C0E0D0E08AEFE4DF8AEFE2DF92
:100180008AEFE0DF8AEFDEDF21960C171D07A4F768
:10019000DF91CF911F910F9108950F931F93CF93EC
:1001A000DF93082F10E0C0E0D0E08AEFDDDF8AEFB8
:1001B000DBDF8AEFD9DF8AEFD7DF21960C171D0727
:1001C000A4F7DF91CF911F910F910895EF92FF92C5
:1001D0000F931F93CF93DF93CDB7DEB761970FB621
:1001E000F894DEBF0FBECDBF7C0141E064E072E059
:1001F00080E192E0E8D000E010E0BE016F5F7F4F49
:100200008EE192E066D0882371F029813A81A901BC
:10021000415051094436510530F40F5F1F4FE2162B
:10022000F30649F507C041E06CE272E08BE392E02F
:10023000CAD0E3CF41E06AE372E08AE492E0C3D03F
:100240001F930F938AE592E09F938F93CE010196BF
:100250007C019F938F936DD241E06AE372E0C70106
:10026000B2D00F900F900F900F900F900F9008301A
:100270001105C8F411C02E153F0538F441E06AE3BA
:1002800072E086E692E09FD0B8CF41E06AE372E088
:100290008FE692E098D0B1CF41E06AE372E089E75F
:1002A00092E091D006C041E063E872E080E992E01C
:1002B0008AD061960FB6F894DEBF0FBECDBFDF9136
:1002C000CF911F910F91FF90EF90089551D1EAC007
:1002D0000895EF92FF920F931F93CF93DF9300D077
:1002E0001F92CDB7DEB78C017B010FD160E080E0BB
:1002F000FDD0C8012DD160E081E0F8D000E047D109
:10030000182F8823E1F3833201F18A3269F4002344
:10031000C1F00150602F81E0E9D060E281E0A1D01E
:10032000602F81E0E3D00DC0033058F4682F81E0E6
:1003300098D0E1E0F0E0EC0FFD1FE00FF11D10831D
:100340000F5F25D18117E9F3DACFFE01E00FF11D30
:100350001182002361F12FEF200FFE01E20FF11D4A
:100360004181405350E02223F9F08AE090E021508F
:10037000E1E0F0E0EC0FFD1FE20FF11D30813053A2
:10038000389FB001399F700D1124460F571FBC01D3
:10039000660F771F880F991F880F991F880F991F65
:1003A000860F971F2111E3CFF70151834083802FE0
:1003B0000F900F900F900F90DF91CF911F910F91A1
:1003C000FF90EF900895EF92FF920F931F93CF93BA
:1003D0007C018B01C42F99D060E080E087D0C701F9
:1003E000B7D060E081E082D0C801B2D08C2FD5DEDA
:1003F000CF911F910F91FF90EF90089567DF87E0F5
:1004000090E08CD141E06CE972E08AEA92E0DBDFB7
:10041000C5E6D0E080D1BE0110D1D8DEFBCF0F936E
:100420001F93CF93DF93082F2E9818E0C2E0D1E0FE
:10043000002324F488818064888303C088818F7BB3
:1004400088839881906298836DDE98819F7D9883E0
:10045000000F115069F72E9ADF91CF911F910F91E4
:1004600008951F93CF93DF93811104C02C98862F9A
:10047000D6DF14C02C9A605270E0EB01CC0FDD1F68
:10048000CC0FDD1FC60FD71FCD54DD4F10E0899173
:10049000C6DF1F5F1530D9F780E0C1DFDF91CF9154
:1004A0001F910895E1E0F1E0808180628083808186
:1004B00080648083249A259A269A84E155DE2D9AB9
:1004C0008AE052DE2E9A61E280E0CBDF63E180E0D9
:1004D000C8DF61EB80E0C5DF64E080E0C2DF60E29E
:1004E00080E0BFDF6CE080E0BCCF0895CF93C62FE3
:1004F000682F606480E0B5DF6C2F660F6C0F660FAD
:10050000606880E0AEDFCF910895EF92FF920F9385
:100510001F93CF93DF930FE010E00F2EF7E0EF2E45
:10052000F02DF12C08C060E281E09BDF2197D9F724
:100530000150110919F0CE2DDF2DF5CF60E080E0DC
:10054000D5DFDF91CF911F910F91FF90EF9008952C
:10055000CF93DF93FC016081662339F0EC01219693
:1005600081E07FDF69916111FBCFDF91CF91089529
:100570009D9A6B9AE1E0F1E08081886080838081C0
:1005800080618083859884986C986D980895A59A69
:100590007398E2E0F1E08081877F808380818F7EA5
:1005A000808381E0E1DD7D9930C07C9930C0649921
:1005B00030C0659930C0A598739AE2E0F1E080817F
:1005C000877F808380818F7E808381E0CDDD7D99F0
:1005D00024C07C9924C0649924C0659924C0A5983E
:1005E0007398E2E0F1E080818860808380818F7E73
:1005F000808381E0B9DD7D9918C07C9918C0649929
:1006000018C0659918C080E0089581E3089584E3D7
:10061000089587E308958AE2089582E3089585E3C3
:10062000089588E3089580E3089583E3089586E3B9
:10063000089589E3089583E2089597FB072E16F441
:10064000009406D077FD08D00BD007FC05D03EF40F
:10065000909581959F4F0895709561957F4F08956E
:10066000AA1BBB1B51E107C0AA1FBB1FA617B707D8
:1006700010F0A61BB70B881F991F5A95A9F78095F4
:100680009095BC01CD0108958F929F92AF92BF9239
:10069000CF92DF92EF92FF92CF93DF93EC016881CC
:1006A00079818A819B81611571058105910521F40C
:1006B00064E279ED8BE597E02DE133EF41E050E026
:1006C00001D349015A019B01AC01A7EAB1E416D359
:1006D0006B017C01ACEEB4EFA50194011BD3DC01EE
:1006E000CB018C0D9D1DAE1DBF1DB7FF03C0019733
:1006F000A109B04888839983AA83BB839F77DF9140
:10070000CF91FF90EF90DF90CF90BF90AF909F90F0
:100710008F900895B9CF80E092E0B6CFA0E0B0E02E
:100720008093000290930102A0930202B09303020F
:1007300008950F931F93CF93DF93CDB7DEB72E9716
:100740000FB6F894DEBF0FBECDBF0E891F8986E0BD
:100750008C831A8309838FEF9FE79E838D83AE017D
:10076000465E5F4F688D798DCE01019611D02F8145
:100770003885F801E20FF31F10822E960FB6F89419
:10078000DEBF0FBECDBFDF91CF911F910F910895B6
:100790002F923F924F925F926F927F928F929F9291
:1007A000AF92BF92CF92DF92EF92FF920F931F937F
:1007B000CF93DF93CDB7DEB72C970FB6F894DEBF9B
:1007C0000FBECDBF7C016B018A01FC01178216822E
:1007D000838181FFB0C1CE0101964C01F701938165
:1007E000F60193FD859193FF81916F01882309F4B0
:1007F0009EC1853239F493FD859193FF81916F01FC
:10080000853221F4B70190E0C7D1E8CF512C312CCB
:1008100020E02032A0F48B3269F030F4803259F0BD
:10082000833269F420612CC08D3239F0803339F481
:10083000216026C02260246023C0286021C027FDDB
:1008400027C030ED380F3A3078F426FF06C0FAE0C2
:100850005F9E300D1124532E13C08AE0389E300D58
:100860001124332E20620CC08E3221F426FD5FC18C
:10087000206406C08C3611F4206802C0883641F42A
:10088000F60193FD859193FF81916F018111C1CF95
:10089000982F9F7D9554933028F40C5F1F4FFFE3F2
:1008A000F9830DC0833631F0833771F0833509F059
:1008B00057C021C0F801808189830E5F1F4F4424F7
:1008C0004394512C540114C03801F2E06F0E711C96
:1008D000F801A080B18026FF03C0652D70E002C042
:1008E0006FEF7FEFC5012C874CD12C0183012C8544
:1008F0002F77222E16C03801F2E06F0E711CF8011E
:10090000A080B18026FF03C0652D70E002C06FEFAC
:100910007FEFC5012C872AD12C012C852068222E3F
:10092000830123FC19C0832D90E048165906A0F4DA
:10093000B70180E290E030D13A94F5CFF50127FC81
:10094000859127FE81915F01B70190E025D131109B
:100950003A94F1E04F1A51084114510479F7DEC07E
:10096000843611F0893631F5F80127FF07C0608120
:100970007181828193810C5F1F4F08C060817181FA
:10098000072E000C880B990B0E5F1F4F2F76722ECF
:1009900097FF09C090958095709561957F4F8F4F17
:1009A0009F4F2068722E2AE030E0A4012DD1A82E9E
:1009B000A81843C0853729F42F7EB22E2AE030E0F4
:1009C00025C0F22FF97FBF2E8F36C1F018F488357D
:1009D00079F0ADC0803719F0883721F0A8C02F2FEB
:1009E0002061B22EB4FE0DC08B2D8460B82E09C0DC
:1009F00024FF0AC09F2F9660B92E06C028E030E081
:100A000005C020E130E002C020E132E0F801B7FE8D
:100A100007C060817181828193810C5F1F4F06C086
:100A20006081718180E090E00E5F1F4FA401ECD0E7
:100A3000A82EA818FB2DFF777F2E76FE0BC0372D32
:100A40003E7FA51450F474FE0AC072FC08C0372D16
:100A50003E7E05C0BA2C372D03C0BA2C01C0B52C80
:100A600034FF0DC0FE01EA0DF11D8081803311F4C9
:100A7000397E09C032FF06C0B394B39404C0832FFB
:100A8000867809F0B39433FD12C030FF06C05A2CAB
:100A9000B31418F4530C5B18B32CB31460F4B701FF
:100AA00080E290E03C8778D0B3943C85F6CFB314D5
:100AB00010F43B1801C0312C34FF11C0B70180E3A2
:100AC00090E03C8769D03C8532FF16C031FD03C001
:100AD00088E790E002C088E590E0B7010CC0832F62
:100AE000867851F031FF02C08BE201C080E237FD11
:100AF0008DE2B70190E050D0A51430F4B70180E347
:100B000090E04AD05A94F8CFAA94F401EA0DF11D6E
:100B10008081B70190E040D0A110F6CF332009F4D6
:100B20005DCEB70180E290E037D03A94F7CFF7017D
:100B30008681978102C08FEF9FEF2C960FB6F894B5
:100B4000DEBF0FBECDBFDF91CF911F910F91FF9000
:100B5000EF90DF90CF90BF90AF909F908F907F905D
:100B60006F905F904F903F902F900895FC010590FB
:100B7000615070400110D8F7809590958E0F9F1F9F
:100B80000895FC016150704001900110D8F78095E4
:100B900090958E0F9F1F08950F931F93CF93DF9310
:100BA000FB01238121FD03C08FEF9FEF28C022FFAF
:100BB00016C046815781248135814217530744F47A
:100BC000A081B1819D012F5F3F4F318320838C93A2
:100BD000268137812F5F3F4F3783268310C0EB017B
:100BE000092F182F0084F185E02D1995892BE1F646
:100BF0008E819F8101969F838E83812F902FDF911D
:100C0000CF911F910F910895FA01AA27283051F131
:100C1000203181F1E8946F936E7F6E5F7F4F8F4F2D
:100C20009F4FAF4FB1E03ED0B4E03CD0670F781F8C
:100C3000891F9A1FA11D680F791F8A1F911DA11D71
:100C40006A0F711D811D911DA11D20D009F46894AA
:100C50003F912AE0269F11243019305D3193DEF652
:100C6000CF010895462F4770405D4193B3E00FD008
:100C7000C9F7F6CF462F4F70405D4A3318F0495DF3
:100C800031FD4052419302D0A9F7EACFB4E0A695D6
:100C90009795879577956795BA95C9F700976105F8
:100CA000710508959B01AC010A2E0694579547954E
:100CB00037952795BA95C9F7620F731F841F951F43
:100CC000A01D0895052E97FB16F400940FD057FD34
:100CD00005D024D007FC02D046F408C050954095BA
:100CE000309521953F4F4F4F5F4F089590958095D8
:100CF000709561957F4F8F4F9F4F089531D0A59F7D
:100D0000900DB49F900DA49F800D911D1124089506
:100D1000B7FFF4CFF3DF821B930B0895A1E21A2EE5
:100D2000AA1BBB1BFD010DC0AA1FBB1FEE1FFF1F8F
:100D3000A217B307E407F50720F0A21BB30BE40BDF
:100D4000F50B661F771F881F991F1A9469F7609526
:100D50007095809590959B01AC01BD01CF010895E0
:100D6000A29FB001B39FC001A39F700D811D1124EC
:100D7000911DB29F700D811D1124911D0895F8944D
:020D8000FFCFA3
:100D820001000000544845204E554D4245523F0057
:100D920043414E20594F5520475545535300454E28
:100DA200544552204E554D4245523A004245545701
:100DB20045454E20312D3130302100454E544552AB
:100DC2002041204E554D42455200434F5252454319
:100DD20054204E554D4245522100475545535345E7
:100DE200533A20257500544F4F204C4F5721005441
:100DF2004F4F20484947482100474F4F44204A4F10
:100E02004221004E4558542054494D452E2E2E0065
:100E1200424554544552204C55434B004C455427AF
:100E22005320504C41592E2E2E0057454C434F4DC6
:100E3200452100000000000000005F0000000700E4
:100E42000700147F147F14242A7F2A1223130864B4
:100E52006236495522500005030000001C22410061
:100E62000041221C0014083E081408083E0808002D
:100E720050300000080808080800606000002010D8
:100E82000804023E5149453E00427F400042615102
:100E920049462141454B311814127F1027454545DB
:100EA200393C4A49493001710905033649494936F5
:100EB200064949291E003636000000563600000851
:100EC20014224100141414141400412214080201C3
:100ED200510906324979413E7E1111117E7F4949FD
:100EE20049363E414141227F4141221C7F494949C5
:100EF200417F090909013E4149497A7F0808087F73
:100F020000417F41002040413F017F081422417F80
:100F1200404040407F020C027F7F0408107F3E4128
:100F220041413E7F090909063E4151215E7F09196F
:100F32002946464949493101017F01013F4040406C
:100F42003F1F2040201F3F4038403F631408146376
:0A0F52000708700807615149454384
:00000001FF
