:1000000071C0000086C0000084C0000082C00000F3
:1000100080C000007EC000007CC000007AC00000EC
:1000200078C0000076C0000074C0000072C00000FC
:1000300070C000006EC000006CC000006AC000000C
:1000400068C0000066C0000064C0000062C000001C
:1000500060C000005EC000005CC000005AC000002C
:1000600058C0000056C0000054C0000052C000003C
:1000700050C000004EC000004CC000004AC000004C
:1000800048C0000046C0000044C0000042C000005C
:1000900040C000003EC000003CC000003AC000006C
:1000A00038C0000036C0000034C0000032C000007C
:1000B00030C000002EC000002CC000002AC000008C
:1000C00028C0000026C0000024C0000022C000009C
:1000D00020C000001EC000001CC000001AC00000AC
:1000E00018C0000011241FBECFEFD1E2DEBFCDBF8C
:1000F00000E00CBF13E0A0E0B2E0E0E6F2E000E0D8
:100100000BBF02C007900D92A832B107D9F72BD0D0
:10011000A5C076CFCF93DF931F92CDB7DEB71982FC
:1001200089818F5F898389818F5F89830F90DF91B8
:10013000CF9108950F931F93CF93DF9328EE33E071
:10014000829F8001839F100D112411233CF0C0E099
:10015000D0E0E0DF21960C171D07DCF7DF91CF918F
:100160001F910F9108956BD046D023D0FFCF0F93EE
:100170001F93CF93DF93082F2E9818E0C2E0D1E0B1
:10018000002324F488818064888303C088818F7B66
:100190008883988190629883BDDF98819F7D988342
:1001A000000F115069F72E9ADF91CF911F910F9197
:1001B000089508951F93CF93DF93811104C02C9865
:1001C000862FD5DF14C02C9A605270E0EB01CC0F63
:1001D000DD1FCC0FDD1FC60FD71FC050DE4F10E054
:1001E0008991C5DF1F5F1530D9F780E0C0DFDF914F
:1001F000CF911F910895E1E0F1E0808180628083DA
:10020000808180648083249A259A269A84E192DFF3
:100210002D9A8AE08FDF2E9A61E280E0CBDF63E1E6
:1002200080E0C8DF65EC80E0C5DF64E080E0C2DF2D
:1002300060E280E0BFDF6CE080E0BCCF08959D9A73
:100240006B9AE1E0F1E08081886080838081806149
:100250008083859884986C986D980895F894FFCF62
:10026000000000000000005F00000007000700140D
:100270007F147F14242A7F2A1223130864623649CC
:100280005522500005030000001C224100004122BD
:100290001C0014083E081408083E080800503000EE
:1002A0000008080808080060600000201008040228
:1002B0003E5149453E00427F40004261514946213E
:1002C00041454B311814127F1027454545393C4AAA
:1002D00049493001710905033649494936064949FA
:1002E000291E003636000000563600000814224150
:1002F00000141414141400412214080201510906B8
:10030000324979413E7E1111117E7F494949363E7D
:10031000414141227F4141221C7F494949417F0996
:100320000909013E4149497A7F0808087F00417F59
:1003300041002040413F017F081422417F4040405E
:10034000407F020C027F7F0408107F3E4141413E06
:100350007F090909063E4151215E7F091929464658
:100360004949493101017F01013F4040403F1F2081
:1003700040201F3F4038403F631408146307087053
:080380000807615149454300E3
:00000001FF
